{
  "contractName": "SupplyChain",
  "abi": [
    {
      "anonymous": false,
      "inputs": [
        {
          "indexed": true,
          "internalType": "address",
          "name": "supplier",
          "type": "address"
        },
        {
          "indexed": false,
          "internalType": "string",
          "name": "hash",
          "type": "string"
        },
        {
          "indexed": false,
          "internalType": "string",
          "name": "documentType",
          "type": "string"
        }
      ],
      "name": "DocumentUploaded",
      "type": "event"
    },
    {
      "anonymous": false,
      "inputs": [
        {
          "indexed": true,
          "internalType": "address",
          "name": "supplier",
          "type": "address"
        }
      ],
      "name": "PaymentTriggered",
      "type": "event"
    },
    {
      "inputs": [
        {
          "internalType": "address",
          "name": "",
          "type": "address"
        }
      ],
      "name": "payments",
      "outputs": [
        {
          "internalType": "bool",
          "name": "",
          "type": "bool"
        }
      ],
      "stateMutability": "view",
      "type": "function",
      "constant": true
    },
    {
      "inputs": [
        {
          "internalType": "address",
          "name": "",
          "type": "address"
        }
      ],
      "name": "suppliers",
      "outputs": [
        {
          "internalType": "address",
          "name": "supplierAddress",
          "type": "address"
        }
      ],
      "stateMutability": "view",
      "type": "function",
      "constant": true
    },
    {
      "inputs": [
        {
          "internalType": "string",
          "name": "_hash",
          "type": "string"
        },
        {
          "internalType": "string",
          "name": "_documentType",
          "type": "string"
        }
      ],
      "name": "uploadDocument",
      "outputs": [],
      "stateMutability": "nonpayable",
      "type": "function"
    },
    {
      "inputs": [
        {
          "internalType": "address",
          "name": "_supplier",
          "type": "address"
        },
        {
          "internalType": "uint256",
          "name": "_index",
          "type": "uint256"
        }
      ],
      "name": "verifyDocument",
      "outputs": [],
      "stateMutability": "nonpayable",
      "type": "function"
    },
    {
      "inputs": [
        {
          "internalType": "address",
          "name": "_supplier",
          "type": "address"
        }
      ],
      "name": "triggerPayment",
      "outputs": [],
      "stateMutability": "nonpayable",
      "type": "function"
    }
  ],
  "bytecode": "0x608060405234801561001057600080fd5b506107ac806100206000396000f3fe608060405234801561001057600080fd5b50600436106100575760003560e01c806316dc15fe1461005c5780634464fe33146100a2578063bab1104e146100b7578063e2982c21146100ca578063f972ed45146100fd575b600080fd5b61008561006a366004610429565b6000602081905290815260409020546001600160a01b031681565b6040516001600160a01b0390911681526020015b60405180910390f35b6100b56100b03660046104ee565b610110565b005b6100b56100c5366004610552565b6101dc565b6100ed6100d8366004610429565b60016020526000908152604090205460ff1681565b6040519015158152602001610099565b6100b561010b366004610429565b610299565b3360008181526020818152604080832080546001600160a01b0319169094178455805160608101825286815280830186905290810183905260019384018054948501815583529120815191926003020190819061016d9082610605565b50602082015160018201906101829082610605565b50604091820151600291909101805460ff19169115159190911790555133907f63630f357f7a0fe7466b2c369dab72c6b5e951f8e9c0de24fa8f4ee1d10c62d9906101d0908590859061070b565b60405180910390a25050565b6001600160a01b03821660009081526020819052604090206001015481106102445760405162461bcd60e51b8152602060048201526016602482015275092dcecc2d8d2c840c8dec6eadacadce840d2dcc8caf60531b60448201526064015b60405180910390fd5b6001600160a01b0382166000908152602081905260409020600190810180548390811061027357610273610739565b60009182526020909120600390910201600201805460ff19169115159190911790555050565b6001600160a01b03818116600090815260208190526040902054166102f55760405162461bcd60e51b815260206004820152601260248201527114dd5c1c1b1a595c881b9bdd08199bdd5b9960721b604482015260640161023b565b60005b6001600160a01b0382166000908152602081905260409020600101548110156103bd576001600160a01b038216600090815260208190526040902060010180548290811061034857610348610739565b600091825260209091206002600390920201015460ff166103ab5760405162461bcd60e51b815260206004820152601e60248201527f416c6c20646f63756d656e7473206d7573742062652076657269666965640000604482015260640161023b565b806103b58161074f565b9150506102f8565b506001600160a01b0381166000818152600160208190526040808320805460ff1916909217909155517f09faea52e8a085bbc056490f356aea42788dcc767710ac8163558efdb7c112579190a250565b80356001600160a01b038116811461042457600080fd5b919050565b60006020828403121561043b57600080fd5b6104448261040d565b9392505050565b634e487b7160e01b600052604160045260246000fd5b600082601f83011261047257600080fd5b813567ffffffffffffffff8082111561048d5761048d61044b565b604051601f8301601f19908116603f011681019082821181831017156104b5576104b561044b565b816040528381528660208588010111156104ce57600080fd5b836020870160208301376000602085830101528094505050505092915050565b6000806040838503121561050157600080fd5b823567ffffffffffffffff8082111561051957600080fd5b61052586838701610461565b9350602085013591508082111561053b57600080fd5b5061054885828601610461565b9150509250929050565b6000806040838503121561056557600080fd5b61056e8361040d565b946020939093013593505050565b600181811c9082168061059057607f821691505b6020821081036105b057634e487b7160e01b600052602260045260246000fd5b50919050565b601f82111561060057600081815260208120601f850160051c810160208610156105dd5750805b601f850160051c820191505b818110156105fc578281556001016105e9565b5050505b505050565b815167ffffffffffffffff81111561061f5761061f61044b565b6106338161062d845461057c565b846105b6565b602080601f83116001811461066857600084156106505750858301515b600019600386901b1c1916600185901b1785556105fc565b600085815260208120601f198616915b8281101561069757888601518255948401946001909101908401610678565b50858210156106b55787850151600019600388901b60f8161c191681555b5050505050600190811b01905550565b6000815180845260005b818110156106eb576020818501810151868301820152016106cf565b506000602082860101526020601f19601f83011685010191505092915050565b60408152600061071e60408301856106c5565b828103602084015261073081856106c5565b95945050505050565b634e487b7160e01b600052603260045260246000fd5b60006001820161076f57634e487b7160e01b600052601160045260246000fd5b506001019056fea264697066735822122015fe47de04b434ddb35a99537b89e925e35763bb496bedca41b920d3266dcec564736f6c63430008150033",
  "immutableReferences": {},
  "source": "// SPDX-License-Identifier: MIT\npragma solidity ^0.8.0;\n\ncontract SupplyChain {\n    struct Document {\n        string hash; // \n        string documentType; // \n        bool verified; // \n    }\n\n    struct Supplier {\n        address supplierAddress;\n        Document[] documents;\n    }\n\n    mapping(address => Supplier) public suppliers;\n    mapping(address => bool) public payments; // \n\n    event DocumentUploaded(address indexed supplier, string hash, string documentType);\n    event PaymentTriggered(address indexed supplier);\n\n    // \n    function uploadDocument(string memory _hash, string memory _documentType) public {\n        suppliers[msg.sender].supplierAddress = msg.sender;\n        suppliers[msg.sender].documents.push(Document(_hash, _documentType, false));\n        emit DocumentUploaded(msg.sender, _hash, _documentType);\n    }\n\n    // \n    function verifyDocument(address _supplier, uint _index) public {\n        require(_index < suppliers[_supplier].documents.length, \"Invalid document index\");\n        suppliers[_supplier].documents[_index].verified = true;\n    }\n\n    // \n    function triggerPayment(address _supplier) public {\n        require(suppliers[_supplier].supplierAddress != address(0), \"Supplier not found\");\n        for (uint i = 0; i < suppliers[_supplier].documents.length; i++) {\n            require(suppliers[_supplier].documents[i].verified, \"All documents must be verified\");\n        }\n        payments[_supplier] = true;\n        emit PaymentTriggered(_supplier);\n    }\n}",
  "sourcePath": "D:\\BS_KW\\BM\\code\\blockchain-supply-chain\\contracts\\SupplyChain.sol",
  "compiler": {
    "name": "solc",
    "version": "0.8.21+commit.d9974bed.Emscripten.clang"
  },
  "schemaVersion": "3.4.16",
  "updatedAt": "2025-08-21T07:01:49.228Z",
  "networkType": "ethereum",
  "devdoc": {
    "kind": "dev",
    "methods": {},
    "version": 1
  },
  "userdoc": {
    "kind": "user",
    "methods": {},
    "version": 1
  }
}